{
  "contractName": "petshop",
  "abi": [
    {
      "inputs": [],
      "stateMutability": "nonpayable",
      "type": "constructor"
    },
    {
      "anonymous": false,
      "inputs": [
        {
          "indexed": true,
          "internalType": "address",
          "name": "owner",
          "type": "address"
        },
        {
          "indexed": true,
          "internalType": "address",
          "name": "approved",
          "type": "address"
        },
        {
          "indexed": true,
          "internalType": "uint256",
          "name": "tokenId",
          "type": "uint256"
        }
      ],
      "name": "Approval",
      "type": "event"
    },
    {
      "anonymous": false,
      "inputs": [
        {
          "indexed": true,
          "internalType": "address",
          "name": "owner",
          "type": "address"
        },
        {
          "indexed": true,
          "internalType": "address",
          "name": "operator",
          "type": "address"
        },
        {
          "indexed": false,
          "internalType": "bool",
          "name": "approved",
          "type": "bool"
        }
      ],
      "name": "ApprovalForAll",
      "type": "event"
    },
    {
      "anonymous": false,
      "inputs": [
        {
          "indexed": true,
          "internalType": "address",
          "name": "from",
          "type": "address"
        },
        {
          "indexed": true,
          "internalType": "address",
          "name": "to",
          "type": "address"
        },
        {
          "indexed": true,
          "internalType": "uint256",
          "name": "tokenId",
          "type": "uint256"
        }
      ],
      "name": "Transfer",
      "type": "event"
    },
    {
      "inputs": [
        {
          "internalType": "address",
          "name": "to",
          "type": "address"
        },
        {
          "internalType": "uint256",
          "name": "tokenId",
          "type": "uint256"
        }
      ],
      "name": "approve",
      "outputs": [],
      "stateMutability": "nonpayable",
      "type": "function"
    },
    {
      "inputs": [
        {
          "internalType": "address",
          "name": "owner",
          "type": "address"
        }
      ],
      "name": "balanceOf",
      "outputs": [
        {
          "internalType": "uint256",
          "name": "",
          "type": "uint256"
        }
      ],
      "stateMutability": "view",
      "type": "function",
      "constant": true
    },
    {
      "inputs": [],
      "name": "baseURI",
      "outputs": [
        {
          "internalType": "string",
          "name": "",
          "type": "string"
        }
      ],
      "stateMutability": "view",
      "type": "function",
      "constant": true
    },
    {
      "inputs": [
        {
          "internalType": "uint256",
          "name": "tokenId",
          "type": "uint256"
        }
      ],
      "name": "getApproved",
      "outputs": [
        {
          "internalType": "address",
          "name": "",
          "type": "address"
        }
      ],
      "stateMutability": "view",
      "type": "function",
      "constant": true
    },
    {
      "inputs": [
        {
          "internalType": "address",
          "name": "owner",
          "type": "address"
        },
        {
          "internalType": "address",
          "name": "operator",
          "type": "address"
        }
      ],
      "name": "isApprovedForAll",
      "outputs": [
        {
          "internalType": "bool",
          "name": "",
          "type": "bool"
        }
      ],
      "stateMutability": "view",
      "type": "function",
      "constant": true
    },
    {
      "inputs": [],
      "name": "name",
      "outputs": [
        {
          "internalType": "string",
          "name": "",
          "type": "string"
        }
      ],
      "stateMutability": "view",
      "type": "function",
      "constant": true
    },
    {
      "inputs": [
        {
          "internalType": "uint256",
          "name": "tokenId",
          "type": "uint256"
        }
      ],
      "name": "ownerOf",
      "outputs": [
        {
          "internalType": "address",
          "name": "",
          "type": "address"
        }
      ],
      "stateMutability": "view",
      "type": "function",
      "constant": true
    },
    {
      "inputs": [
        {
          "internalType": "address",
          "name": "from",
          "type": "address"
        },
        {
          "internalType": "address",
          "name": "to",
          "type": "address"
        },
        {
          "internalType": "uint256",
          "name": "tokenId",
          "type": "uint256"
        }
      ],
      "name": "safeTransferFrom",
      "outputs": [],
      "stateMutability": "nonpayable",
      "type": "function"
    },
    {
      "inputs": [
        {
          "internalType": "address",
          "name": "from",
          "type": "address"
        },
        {
          "internalType": "address",
          "name": "to",
          "type": "address"
        },
        {
          "internalType": "uint256",
          "name": "tokenId",
          "type": "uint256"
        },
        {
          "internalType": "bytes",
          "name": "_data",
          "type": "bytes"
        }
      ],
      "name": "safeTransferFrom",
      "outputs": [],
      "stateMutability": "nonpayable",
      "type": "function"
    },
    {
      "inputs": [
        {
          "internalType": "address",
          "name": "operator",
          "type": "address"
        },
        {
          "internalType": "bool",
          "name": "approved",
          "type": "bool"
        }
      ],
      "name": "setApprovalForAll",
      "outputs": [],
      "stateMutability": "nonpayable",
      "type": "function"
    },
    {
      "inputs": [
        {
          "internalType": "bytes4",
          "name": "interfaceId",
          "type": "bytes4"
        }
      ],
      "name": "supportsInterface",
      "outputs": [
        {
          "internalType": "bool",
          "name": "",
          "type": "bool"
        }
      ],
      "stateMutability": "view",
      "type": "function",
      "constant": true
    },
    {
      "inputs": [],
      "name": "symbol",
      "outputs": [
        {
          "internalType": "string",
          "name": "",
          "type": "string"
        }
      ],
      "stateMutability": "view",
      "type": "function",
      "constant": true
    },
    {
      "inputs": [
        {
          "internalType": "uint256",
          "name": "index",
          "type": "uint256"
        }
      ],
      "name": "tokenByIndex",
      "outputs": [
        {
          "internalType": "uint256",
          "name": "",
          "type": "uint256"
        }
      ],
      "stateMutability": "view",
      "type": "function",
      "constant": true
    },
    {
      "inputs": [
        {
          "internalType": "address",
          "name": "owner",
          "type": "address"
        },
        {
          "internalType": "uint256",
          "name": "index",
          "type": "uint256"
        }
      ],
      "name": "tokenOfOwnerByIndex",
      "outputs": [
        {
          "internalType": "uint256",
          "name": "",
          "type": "uint256"
        }
      ],
      "stateMutability": "view",
      "type": "function",
      "constant": true
    },
    {
      "inputs": [
        {
          "internalType": "uint256",
          "name": "tokenId",
          "type": "uint256"
        }
      ],
      "name": "tokenURI",
      "outputs": [
        {
          "internalType": "string",
          "name": "",
          "type": "string"
        }
      ],
      "stateMutability": "view",
      "type": "function",
      "constant": true
    },
    {
      "inputs": [],
      "name": "totalSupply",
      "outputs": [
        {
          "internalType": "uint256",
          "name": "",
          "type": "uint256"
        }
      ],
      "stateMutability": "view",
      "type": "function",
      "constant": true
    },
    {
      "inputs": [
        {
          "internalType": "address",
          "name": "from",
          "type": "address"
        },
        {
          "internalType": "address",
          "name": "to",
          "type": "address"
        },
        {
          "internalType": "uint256",
          "name": "tokenId",
          "type": "uint256"
        }
      ],
      "name": "transferFrom",
      "outputs": [],
      "stateMutability": "nonpayable",
      "type": "function"
    },
    {
      "inputs": [
        {
          "internalType": "string",
          "name": "_petName",
          "type": "string"
        },
        {
          "internalType": "string",
          "name": "_location",
          "type": "string"
        },
        {
          "internalType": "uint256",
          "name": "_age",
          "type": "uint256"
        },
        {
          "internalType": "uint256",
          "name": "_price",
          "type": "uint256"
        }
      ],
      "name": "addPet",
      "outputs": [
        {
          "internalType": "bool",
          "name": "_status",
          "type": "bool"
        }
      ],
      "stateMutability": "nonpayable",
      "type": "function"
    },
    {
      "inputs": [
        {
          "internalType": "address",
          "name": "from",
          "type": "address"
        },
        {
          "internalType": "address",
          "name": "to",
          "type": "address"
        },
        {
          "internalType": "uint256",
          "name": "tokenId",
          "type": "uint256"
        }
      ],
      "name": "_transferFrom",
      "outputs": [
        {
          "internalType": "bool",
          "name": "",
          "type": "bool"
        }
      ],
      "stateMutability": "payable",
      "type": "function",
      "payable": true
    }
  ],
  "bytecode": "0x6080604052735b38da6a701c568545dcfcb03fcb875f56beddc4600c60006101000a81548173ffffffffffffffffffffffffffffffffffffffff021916908373ffffffffffffffffffffffffffffffffffffffff1602179055503480156200006657600080fd5b506040518060400160405280600781526020017f70657473686f70000000000000000000000000000000000000000000000000008152506040518060400160405280600281526020017f5053000000000000000000000000000000000000000000000000000000000000815250620000eb6301ffc9a760e01b6200016d60201b60201c565b81600690805190602001906200010392919062000276565b5080600790805190602001906200011c92919062000276565b50620001356380ac58cd60e01b6200016d60201b60201c565b6200014d635b5e139f60e01b6200016d60201b60201c565b6200016563780e9d6360e01b6200016d60201b60201c565b505062000325565b63ffffffff60e01b817bffffffffffffffffffffffffffffffffffffffffffffffffffffffff191614156200020a576040517f08c379a000000000000000000000000000000000000000000000000000000000815260040180806020018281038252601c8152602001807f4552433136353a20696e76616c696420696e746572666163652069640000000081525060200191505060405180910390fd5b6001600080837bffffffffffffffffffffffffffffffffffffffffffffffffffffffff19167bffffffffffffffffffffffffffffffffffffffffffffffffffffffff1916815260200190815260200160002060006101000a81548160ff02191690831515021790555050565b828054600181600116156101000203166002900490600052602060002090601f016020900481019282601f10620002b957805160ff1916838001178555620002ea565b82800160010185558215620002ea579182015b82811115620002e9578251825591602001919060010190620002cc565b5b509050620002f99190620002fd565b5090565b6200032291905b808211156200031e57600081600090555060010162000304565b5090565b90565b6131ec80620003356000396000f3fe6080604052600436106101145760003560e01c80636352211e116100a0578063b88d4fde11610064578063b88d4fde1461072d578063c87b56dd1461083f578063cb712535146108f3578063dce46cc414610979578063e985e9c514610b0457610114565b80636352211e146104d05780636c0360eb1461054b57806370a08231146105db57806395d89b4114610640578063a22cb465146106d057610114565b806318160ddd116100e757806318160ddd146102f157806323b872dd1461031c5780632f745c591461039757806342842e0e146104065780634f6ccce71461048157610114565b806301ffc9a71461011957806306fdde031461018b578063081812fc1461021b578063095ea7b314610296575b600080fd5b34801561012557600080fd5b506101716004803603602081101561013c57600080fd5b8101908080357bffffffffffffffffffffffffffffffffffffffffffffffffffffffff19169060200190929190505050610b8d565b604051808215151515815260200191505060405180910390f35b34801561019757600080fd5b506101a0610bf4565b6040518080602001828103825283818151815260200191508051906020019080838360005b838110156101e05780820151818401526020810190506101c5565b50505050905090810190601f16801561020d5780820380516001836020036101000a031916815260200191505b509250505060405180910390f35b34801561022757600080fd5b506102546004803603602081101561023e57600080fd5b8101908080359060200190929190505050610c96565b604051808273ffffffffffffffffffffffffffffffffffffffff1673ffffffffffffffffffffffffffffffffffffffff16815260200191505060405180910390f35b3480156102a257600080fd5b506102ef600480360360408110156102b957600080fd5b81019080803573ffffffffffffffffffffffffffffffffffffffff16906020019092919080359060200190929190505050610d31565b005b3480156102fd57600080fd5b50610306610e75565b6040518082815260200191505060405180910390f35b34801561032857600080fd5b506103956004803603606081101561033f57600080fd5b81019080803573ffffffffffffffffffffffffffffffffffffffff169060200190929190803573ffffffffffffffffffffffffffffffffffffffff16906020019092919080359060200190929190505050610e86565b005b3480156103a357600080fd5b506103f0600480360360408110156103ba57600080fd5b81019080803573ffffffffffffffffffffffffffffffffffffffff16906020019092919080359060200190929190505050610efc565b6040518082815260200191505060405180910390f35b34801561041257600080fd5b5061047f6004803603606081101561042957600080fd5b81019080803573ffffffffffffffffffffffffffffffffffffffff169060200190929190803573ffffffffffffffffffffffffffffffffffffffff16906020019092919080359060200190929190505050610f57565b005b34801561048d57600080fd5b506104ba600480360360208110156104a457600080fd5b8101908080359060200190929190505050610f77565b6040518082815260200191505060405180910390f35b3480156104dc57600080fd5b50610509600480360360208110156104f357600080fd5b8101908080359060200190929190505050610f9a565b604051808273ffffffffffffffffffffffffffffffffffffffff1673ffffffffffffffffffffffffffffffffffffffff16815260200191505060405180910390f35b34801561055757600080fd5b50610560610fd1565b6040518080602001828103825283818151815260200191508051906020019080838360005b838110156105a0578082015181840152602081019050610585565b50505050905090810190601f1680156105cd5780820380516001836020036101000a031916815260200191505b509250505060405180910390f35b3480156105e757600080fd5b5061062a600480360360208110156105fe57600080fd5b81019080803573ffffffffffffffffffffffffffffffffffffffff169060200190929190505050611073565b6040518082815260200191505060405180910390f35b34801561064c57600080fd5b50610655611148565b6040518080602001828103825283818151815260200191508051906020019080838360005b8381101561069557808201518184015260208101905061067a565b50505050905090810190601f1680156106c25780820380516001836020036101000a031916815260200191505b509250505060405180910390f35b3480156106dc57600080fd5b5061072b600480360360408110156106f357600080fd5b81019080803573ffffffffffffffffffffffffffffffffffffffff1690602001909291908035151590602001909291905050506111ea565b005b34801561073957600080fd5b5061083d6004803603608081101561075057600080fd5b81019080803573ffffffffffffffffffffffffffffffffffffffff169060200190929190803573ffffffffffffffffffffffffffffffffffffffff16906020019092919080359060200190929190803590602001906401000000008111156107b757600080fd5b8201836020820111156107c957600080fd5b803590602001918460018302840111640100000000831117156107eb57600080fd5b91908080601f016020809104026020016040519081016040528093929190818152602001838380828437600081840152601f19601f8201169050808301925050505050505091929192905050506113a2565b005b34801561084b57600080fd5b506108786004803603602081101561086257600080fd5b810190808035906020019092919050505061141a565b6040518080602001828103825283818151815260200191508051906020019080838360005b838110156108b857808201518184015260208101905061089d565b50505050905090810190601f1680156108e55780820380516001836020036101000a031916815260200191505b509250505060405180910390f35b61095f6004803603606081101561090957600080fd5b81019080803573ffffffffffffffffffffffffffffffffffffffff169060200190929190803573ffffffffffffffffffffffffffffffffffffffff16906020019092919080359060200190929190505050611703565b604051808215151515815260200191505060405180910390f35b34801561098557600080fd5b50610aea6004803603608081101561099c57600080fd5b81019080803590602001906401000000008111156109b957600080fd5b8201836020820111156109cb57600080fd5b803590602001918460018302840111640100000000831117156109ed57600080fd5b91908080601f016020809104026020016040519081016040528093929190818152602001838380828437600081840152601f19601f82011690508083019250505050505050919291929080359060200190640100000000811115610a5057600080fd5b820183602082011115610a6257600080fd5b80359060200191846001830284011164010000000083111715610a8457600080fd5b91908080601f016020809104026020016040519081016040528093929190818152602001838380828437600081840152601f19601f8201169050808301925050505050505091929192908035906020019092919080359060200190929190505050611974565b604051808215151515815260200191505060405180910390f35b348015610b1057600080fd5b50610b7360048036036040811015610b2757600080fd5b81019080803573ffffffffffffffffffffffffffffffffffffffff169060200190929190803573ffffffffffffffffffffffffffffffffffffffff169060200190929190505050611b93565b604051808215151515815260200191505060405180910390f35b6000806000837bffffffffffffffffffffffffffffffffffffffffffffffffffffffff19167bffffffffffffffffffffffffffffffffffffffffffffffffffffffff1916815260200190815260200160002060009054906101000a900460ff169050919050565b606060068054600181600116156101000203166002900480601f016020809104026020016040519081016040528092919081815260200182805460018160011615610100020316600290048015610c8c5780601f10610c6157610100808354040283529160200191610c8c565b820191906000526020600020905b815481529060010190602001808311610c6f57829003601f168201915b5050505050905090565b6000610ca182611c27565b610cf6576040517f08c379a000000000000000000000000000000000000000000000000000000000815260040180806020018281038252602c8152602001806130e1602c913960400191505060405180910390fd5b6004600083815260200190815260200160002060009054906101000a900473ffffffffffffffffffffffffffffffffffffffff169050919050565b6000610d3c82610f9a565b90508073ffffffffffffffffffffffffffffffffffffffff168373ffffffffffffffffffffffffffffffffffffffff161415610dc3576040517f08c379a00000000000000000000000000000000000000000000000000000000081526004018080602001828103825260218152602001806131656021913960400191505060405180910390fd5b8073ffffffffffffffffffffffffffffffffffffffff16610de2611c44565b73ffffffffffffffffffffffffffffffffffffffff161480610e115750610e1081610e0b611c44565b611b93565b5b610e66576040517f08c379a00000000000000000000000000000000000000000000000000000000081526004018080602001828103825260388152602001806130346038913960400191505060405180910390fd5b610e708383611c4c565b505050565b6000610e816002611d05565b905090565b610e97610e91611c44565b82611d1a565b610eec576040517f08c379a00000000000000000000000000000000000000000000000000000000081526004018080602001828103825260318152602001806131866031913960400191505060405180910390fd5b610ef7838383611e0e565b505050565b6000610f4f82600160008673ffffffffffffffffffffffffffffffffffffffff1673ffffffffffffffffffffffffffffffffffffffff16815260200190815260200160002061205190919063ffffffff16565b905092915050565b610f72838383604051806020016040528060008152506113a2565b505050565b600080610f8e83600261206b90919063ffffffff16565b50905080915050919050565b6000610fca8260405180606001604052806029815260200161309660299139600261209a9092919063ffffffff16565b9050919050565b606060098054600181600116156101000203166002900480601f0160208091040260200160405190810160405280929190818152602001828054600181600116156101000203166002900480156110695780601f1061103e57610100808354040283529160200191611069565b820191906000526020600020905b81548152906001019060200180831161104c57829003601f168201915b5050505050905090565b60008073ffffffffffffffffffffffffffffffffffffffff168273ffffffffffffffffffffffffffffffffffffffff1614156110fa576040517f08c379a000000000000000000000000000000000000000000000000000000000815260040180806020018281038252602a81526020018061306c602a913960400191505060405180910390fd5b611141600160008473ffffffffffffffffffffffffffffffffffffffff1673ffffffffffffffffffffffffffffffffffffffff1681526020019081526020016000206120b9565b9050919050565b606060078054600181600116156101000203166002900480601f0160208091040260200160405190810160405280929190818152602001828054600181600116156101000203166002900480156111e05780601f106111b5576101008083540402835291602001916111e0565b820191906000526020600020905b8154815290600101906020018083116111c357829003601f168201915b5050505050905090565b6111f2611c44565b73ffffffffffffffffffffffffffffffffffffffff168273ffffffffffffffffffffffffffffffffffffffff161415611293576040517f08c379a00000000000000000000000000000000000000000000000000000000081526004018080602001828103825260198152602001807f4552433732313a20617070726f766520746f2063616c6c65720000000000000081525060200191505060405180910390fd5b80600560006112a0611c44565b73ffffffffffffffffffffffffffffffffffffffff1673ffffffffffffffffffffffffffffffffffffffff16815260200190815260200160002060008473ffffffffffffffffffffffffffffffffffffffff1673ffffffffffffffffffffffffffffffffffffffff16815260200190815260200160002060006101000a81548160ff0219169083151502179055508173ffffffffffffffffffffffffffffffffffffffff1661134d611c44565b73ffffffffffffffffffffffffffffffffffffffff167f17307eab39ab6107e8899845ad3d59bd9653f200f220920489ca2b5937696c3183604051808215151515815260200191505060405180910390a35050565b6113b36113ad611c44565b83611d1a565b611408576040517f08c379a00000000000000000000000000000000000000000000000000000000081526004018080602001828103825260318152602001806131866031913960400191505060405180910390fd5b611414848484846120ce565b50505050565b606061142582611c27565b61147a576040517f08c379a000000000000000000000000000000000000000000000000000000000815260040180806020018281038252602f815260200180613136602f913960400191505060405180910390fd5b6060600860008481526020019081526020016000208054600181600116156101000203166002900480601f0160208091040260200160405190810160405280929190818152602001828054600181600116156101000203166002900480156115235780601f106114f857610100808354040283529160200191611523565b820191906000526020600020905b81548152906001019060200180831161150657829003601f168201915b5050505050905060006009805460018160011615610100020316600290049050141561155257809150506116fe565b60008151111561162b5760098160405160200180838054600181600116156101000203166002900480156115bd5780601f1061159b5761010080835404028352918201916115bd565b820191906000526020600020905b8154815290600101906020018083116115a9575b505082805190602001908083835b602083106115ee57805182526020820191506020810190506020830392506115cb565b6001836020036101000a038019825116818451168082178552505050505050905001925050506040516020818303038152906040529150506116fe565b600961163684612140565b60405160200180838054600181600116156101000203166002900480156116945780601f10611672576101008083540402835291820191611694565b820191906000526020600020905b815481529060010190602001808311611680575b505082805190602001908083835b602083106116c557805182526020820191506020810190506020830392506116a2565b6001836020036101000a038019825116818451168082178552505050505050905001925050506040516020818303038152906040529150505b919050565b600061170d612e7f565b8473ffffffffffffffffffffffffffffffffffffffff1661172d84610f9a565b73ffffffffffffffffffffffffffffffffffffffff1614611799576040517f08c379a000000000000000000000000000000000000000000000000000000000815260040180806020018281038252602981526020018061310d6029913960400191505060405180910390fd5b600073ffffffffffffffffffffffffffffffffffffffff168473ffffffffffffffffffffffffffffffffffffffff16141561181f576040517f08c379a0000000000000000000000000000000000000000000000000000000008152600401808060200182810382526024815260200180612fbe6024913960400191505060405180910390fd5b6000341180156118325750806060015134145b61183b57600080fd5b6000735b38da6a701c568545dcfcb03fcb875f56beddc4905060008173ffffffffffffffffffffffffffffffffffffffff166108fc349081150290604051600060405180830381858888f19350505050905085600b868154811061189b57fe5b906000526020600020906005020160040160006101000a81548173ffffffffffffffffffffffffffffffffffffffff021916908373ffffffffffffffffffffffffffffffffffffffff160217905550843373ffffffffffffffffffffffffffffffffffffffff16600c60009054906101000a900473ffffffffffffffffffffffffffffffffffffffff1673ffffffffffffffffffffffffffffffffffffffff167fddf252ad1be2c89b69c2b068fc378daa952ba7f163c4a11628f55a4df523b3ef60405160405180910390a48093505050509392505050565b60003373ffffffffffffffffffffffffffffffffffffffff16600c60009054906101000a900473ffffffffffffffffffffffffffffffffffffffff1673ffffffffffffffffffffffffffffffffffffffff1614611a39576040517f08c379a000000000000000000000000000000000000000000000000000000000815260040180806020018281038252601a8152602001807f4572726f723a204f6e6c79204f776e65722072756e207468697300000000000081525060200191505060405180910390fd5b611a41612e7f565b600a600081548092919060010191905055506040518060a00160405280878152602001868152602001858152602001848152602001600c60009054906101000a900473ffffffffffffffffffffffffffffffffffffffff1673ffffffffffffffffffffffffffffffffffffffff168152509050600b8190806001815401808255809150506001900390600052602060002090600502016000909190919091506000820151816000019080519060200190611afc929190612ec4565b506020820151816001019080519060200190611b19929190612ec4565b50604082015181600201556060820151816003015560808201518160040160006101000a81548173ffffffffffffffffffffffffffffffffffffffff021916908373ffffffffffffffffffffffffffffffffffffffff1602179055505050611b8333600a54612270565b6001915081915050949350505050565b6000600560008473ffffffffffffffffffffffffffffffffffffffff1673ffffffffffffffffffffffffffffffffffffffff16815260200190815260200160002060008373ffffffffffffffffffffffffffffffffffffffff1673ffffffffffffffffffffffffffffffffffffffff16815260200190815260200160002060009054906101000a900460ff16905092915050565b6000611c3d82600261246490919063ffffffff16565b9050919050565b600033905090565b816004600083815260200190815260200160002060006101000a81548173ffffffffffffffffffffffffffffffffffffffff021916908373ffffffffffffffffffffffffffffffffffffffff160217905550808273ffffffffffffffffffffffffffffffffffffffff16611cbf83610f9a565b73ffffffffffffffffffffffffffffffffffffffff167f8c5be1e5ebec7d5bd14f71427d1e84f3dd0314c0f7b2291e5b200ac8c7c3b92560405160405180910390a45050565b6000611d138260000161247e565b9050919050565b6000611d2582611c27565b611d7a576040517f08c379a000000000000000000000000000000000000000000000000000000000815260040180806020018281038252602c815260200180613008602c913960400191505060405180910390fd5b6000611d8583610f9a565b90508073ffffffffffffffffffffffffffffffffffffffff168473ffffffffffffffffffffffffffffffffffffffff161480611df457508373ffffffffffffffffffffffffffffffffffffffff16611ddc84610c96565b73ffffffffffffffffffffffffffffffffffffffff16145b80611e055750611e048185611b93565b5b91505092915050565b8273ffffffffffffffffffffffffffffffffffffffff16611e2e82610f9a565b73ffffffffffffffffffffffffffffffffffffffff1614611e9a576040517f08c379a000000000000000000000000000000000000000000000000000000000815260040180806020018281038252602981526020018061310d6029913960400191505060405180910390fd5b600073ffffffffffffffffffffffffffffffffffffffff168273ffffffffffffffffffffffffffffffffffffffff161415611f20576040517f08c379a0000000000000000000000000000000000000000000000000000000008152600401808060200182810382526024815260200180612fbe6024913960400191505060405180910390fd5b611f2b83838361248f565b611f36600082611c4c565b611f8781600160008673ffffffffffffffffffffffffffffffffffffffff1673ffffffffffffffffffffffffffffffffffffffff16815260200190815260200160002061249490919063ffffffff16565b50611fd981600160008573ffffffffffffffffffffffffffffffffffffffff1673ffffffffffffffffffffffffffffffffffffffff1681526020019081526020016000206124ae90919063ffffffff16565b50611ff0818360026124c89092919063ffffffff16565b50808273ffffffffffffffffffffffffffffffffffffffff168473ffffffffffffffffffffffffffffffffffffffff167fddf252ad1be2c89b69c2b068fc378daa952ba7f163c4a11628f55a4df523b3ef60405160405180910390a4505050565b600061206083600001836124fd565b60001c905092915050565b60008060008061207e8660000186612580565b915091508160001c8160001c8090509350935050509250929050565b60006120ad846000018460001b84612619565b60001c90509392505050565b60006120c78260000161270f565b9050919050565b6120d9848484611e0e565b6120e584848484612720565b61213a576040517f08c379a0000000000000000000000000000000000000000000000000000000008152600401808060200182810382526032815260200180612f8c6032913960400191505060405180910390fd5b50505050565b60606000821415612188576040518060400160405280600181526020017f3000000000000000000000000000000000000000000000000000000000000000815250905061226b565b600082905060005b600082146121b2578080600101915050600a82816121aa57fe5b049150612190565b6060816040519080825280601f01601f1916602001820160405280156121e75781602001600182028038833980820191505090505b50905060006001830390508593505b6000841461226357600a848161220857fe5b0660300160f81b8282806001900393508151811061222257fe5b60200101907effffffffffffffffffffffffffffffffffffffffffffffffffffffffffffff1916908160001a905350600a848161225b57fe5b0493506121f6565b819450505050505b919050565b600073ffffffffffffffffffffffffffffffffffffffff168273ffffffffffffffffffffffffffffffffffffffff161415612313576040517f08c379a00000000000000000000000000000000000000000000000000000000081526004018080602001828103825260208152602001807f4552433732313a206d696e7420746f20746865207a65726f206164647265737381525060200191505060405180910390fd5b61231c81611c27565b1561238f576040517f08c379a000000000000000000000000000000000000000000000000000000000815260040180806020018281038252601c8152602001807f4552433732313a20746f6b656e20616c7265616479206d696e7465640000000081525060200191505060405180910390fd5b61239b6000838361248f565b6123ec81600160008573ffffffffffffffffffffffffffffffffffffffff1673ffffffffffffffffffffffffffffffffffffffff1681526020019081526020016000206124ae90919063ffffffff16565b50612403818360026124c89092919063ffffffff16565b50808273ffffffffffffffffffffffffffffffffffffffff16600073ffffffffffffffffffffffffffffffffffffffff167fddf252ad1be2c89b69c2b068fc378daa952ba7f163c4a11628f55a4df523b3ef60405160405180910390a45050565b6000612476836000018360001b612965565b905092915050565b600081600001805490509050919050565b505050565b60006124a6836000018360001b612988565b905092915050565b60006124c0836000018360001b612a70565b905092915050565b60006124f4846000018460001b8473ffffffffffffffffffffffffffffffffffffffff1660001b612ae0565b90509392505050565b60008183600001805490501161255e576040517f08c379a0000000000000000000000000000000000000000000000000000000008152600401808060200182810382526022815260200180612f6a6022913960400191505060405180910390fd5b82600001828154811061256d57fe5b9060005260206000200154905092915050565b600080828460000180549050116125e2576040517f08c379a00000000000000000000000000000000000000000000000000000000081526004018080602001828103825260228152602001806130bf6022913960400191505060405180910390fd5b60008460000184815481106125f357fe5b906000526020600020906002020190508060000154816001015492509250509250929050565b600080846001016000858152602001908152602001600020549050600081141583906126e0576040517f08c379a00000000000000000000000000000000000000000000000000000000081526004018080602001828103825283818151815260200191508051906020019080838360005b838110156126a557808201518184015260208101905061268a565b50505050905090810190601f1680156126d25780820380516001836020036101000a031916815260200191505b509250505060405180910390fd5b508460000160018203815481106126f357fe5b9060005260206000209060020201600101549150509392505050565b600081600001805490509050919050565b60006127418473ffffffffffffffffffffffffffffffffffffffff16612bbc565b61274e576001905061295d565b60606128e463150b7a0260e01b612763611c44565b888787604051602401808573ffffffffffffffffffffffffffffffffffffffff1673ffffffffffffffffffffffffffffffffffffffff1681526020018473ffffffffffffffffffffffffffffffffffffffff1673ffffffffffffffffffffffffffffffffffffffff16815260200183815260200180602001828103825283818151815260200191508051906020019080838360005b838110156128135780820151818401526020810190506127f8565b50505050905090810190601f1680156128405780820380516001836020036101000a031916815260200191505b5095505050505050604051602081830303815290604052907bffffffffffffffffffffffffffffffffffffffffffffffffffffffff19166020820180517bffffffffffffffffffffffffffffffffffffffffffffffffffffffff8381831617835250505050604051806060016040528060328152602001612f8c603291398773ffffffffffffffffffffffffffffffffffffffff16612bcf9092919063ffffffff16565b905060008180602001905160208110156128fd57600080fd5b8101908080519060200190929190505050905063150b7a0260e01b7bffffffffffffffffffffffffffffffffffffffffffffffffffffffff1916817bffffffffffffffffffffffffffffffffffffffffffffffffffffffff191614925050505b949350505050565b600080836001016000848152602001908152602001600020541415905092915050565b60008083600101600084815260200190815260200160002054905060008114612a6457600060018203905060006001866000018054905003905060008660000182815481106129d357fe5b90600052602060002001549050808760000184815481106129f057fe5b9060005260206000200181905550600183018760010160008381526020019081526020016000208190555086600001805480612a2857fe5b60019003818190600052602060002001600090559055866001016000878152602001908152602001600020600090556001945050505050612a6a565b60009150505b92915050565b6000612a7c8383612be7565b612ad5578260000182908060018154018082558091505060019003906000526020600020016000909190919091505582600001805490508360010160008481526020019081526020016000208190555060019050612ada565b600090505b92915050565b6000808460010160008581526020019081526020016000205490506000811415612b8757846000016040518060400160405280868152602001858152509080600181540180825580915050600190039060005260206000209060020201600090919091909150600082015181600001556020820151816001015550508460000180549050856001016000868152602001908152602001600020819055506001915050612bb5565b82856000016001830381548110612b9a57fe5b90600052602060002090600202016001018190555060009150505b9392505050565b600080823b905060008111915050919050565b6060612bde8484600085612c0a565b90509392505050565b600080836001016000848152602001908152602001600020541415905092915050565b606082471015612c65576040517f08c379a0000000000000000000000000000000000000000000000000000000008152600401808060200182810382526026815260200180612fe26026913960400191505060405180910390fd5b612c6e85612bbc565b612ce0576040517f08c379a000000000000000000000000000000000000000000000000000000000815260040180806020018281038252601d8152602001807f416464726573733a2063616c6c20746f206e6f6e2d636f6e747261637400000081525060200191505060405180910390fd5b600060608673ffffffffffffffffffffffffffffffffffffffff1685876040518082805190602001908083835b60208310612d305780518252602082019150602081019050602083039250612d0d565b6001836020036101000a03801982511681845116808217855250505050505090500191505060006040518083038185875af1925050503d8060008114612d92576040519150601f19603f3d011682016040523d82523d6000602084013e612d97565b606091505b5091509150612da7828286612db3565b92505050949350505050565b60608315612dc357829050612e78565b600083511115612dd65782518084602001fd5b816040517f08c379a00000000000000000000000000000000000000000000000000000000081526004018080602001828103825283818151815260200191508051906020019080838360005b83811015612e3d578082015181840152602081019050612e22565b50505050905090810190601f168015612e6a5780820380516001836020036101000a031916815260200191505b509250505060405180910390fd5b9392505050565b6040518060a0016040528060608152602001606081526020016000815260200160008152602001600073ffffffffffffffffffffffffffffffffffffffff1681525090565b828054600181600116156101000203166002900490600052602060002090601f016020900481019282601f10612f0557805160ff1916838001178555612f33565b82800160010185558215612f33579182015b82811115612f32578251825591602001919060010190612f17565b5b509050612f409190612f44565b5090565b612f6691905b80821115612f62576000816000905550600101612f4a565b5090565b9056fe456e756d657261626c655365743a20696e646578206f7574206f6620626f756e64734552433732313a207472616e7366657220746f206e6f6e20455243373231526563656976657220696d706c656d656e7465724552433732313a207472616e7366657220746f20746865207a65726f2061646472657373416464726573733a20696e73756666696369656e742062616c616e636520666f722063616c6c4552433732313a206f70657261746f7220717565727920666f72206e6f6e6578697374656e7420746f6b656e4552433732313a20617070726f76652063616c6c6572206973206e6f74206f776e6572206e6f7220617070726f76656420666f7220616c6c4552433732313a2062616c616e636520717565727920666f7220746865207a65726f20616464726573734552433732313a206f776e657220717565727920666f72206e6f6e6578697374656e7420746f6b656e456e756d657261626c654d61703a20696e646578206f7574206f6620626f756e64734552433732313a20617070726f76656420717565727920666f72206e6f6e6578697374656e7420746f6b656e4552433732313a207472616e73666572206f6620746f6b656e2074686174206973206e6f74206f776e4552433732314d657461646174613a2055524920717565727920666f72206e6f6e6578697374656e7420746f6b656e4552433732313a20617070726f76616c20746f2063757272656e74206f776e65724552433732313a207472616e736665722063616c6c6572206973206e6f74206f776e6572206e6f7220617070726f766564a2646970667358221220d4fc32a57dda9a51c9f098fa91effe061f255e2a83764cb8acde44d9c725195064736f6c63430006020033",
  "source": "pragma solidity ^0.6.0;\r\n\r\nimport \"@openzeppelin/contracts/token/ERC721/ERC721.sol\";\r\n\r\ncontract petshop is ERC721{\r\n    \r\n   constructor() ERC721(\"petshop\", \"PS\") public {\r\n  }\r\n\r\n//  mapping(address => petInfo) public OnlyOwner;\r\n   \r\n    struct petInfo{\r\n        string name;\r\n        string location;\r\n        uint256 age;\r\n        uint256 price;\r\n        address owner;\r\n    }\r\n    uint256 petId;\r\n    \r\n    petInfo[] petlist; \r\n    \r\n    address Owner = 0x5B38Da6a701c568545dCfcB03FcB875f56beddC4;\r\n\r\n    function addPet(string memory _petName, string memory _location, uint256 _age, uint256 _price)public returns(bool _status){\r\n        \r\n         require(\r\n          Owner == msg.sender,\r\n            \"Error: Only Owner run this\"\r\n        );\r\n        \r\n        petInfo memory tempinfo;\r\n            \r\n        petId++;\r\n        \r\n        tempinfo = petInfo({\r\n            name : _petName,\r\n            location :_location,\r\n            age :_age,\r\n            price : _price,\r\n            owner: Owner\r\n        });\r\n        \r\n        petlist.push(tempinfo);\r\n        _mint(msg.sender, petId);\r\n        \r\n        \r\n        return _status = true;\r\n    }\r\n    \r\n  function _transferFrom(address from, address to, uint256 tokenId) public payable returns(bool){\r\n      \r\n      petInfo memory tempinfo;\r\n        require(ownerOf(tokenId) == from, \"ERC721: transfer of token that is not own\");\r\n        require(to != address(0), \"ERC721: transfer to the zero address\");\r\n        require(msg.value > 0 && msg.value == tempinfo.price);\r\n        \r\n        address payable _owner =  payable(0x5B38Da6a701c568545dCfcB03FcB875f56beddC4);\r\n        bool isFundSend =  _owner.send(msg.value);\r\n        petlist[tokenId].owner = to;\r\n\r\n        emit Transfer(Owner, msg.sender, tokenId);\r\n        \r\n        return isFundSend;\r\n    }\r\n    \r\n}",
  "sourcePath": "G:/blockchain/Quarter-4/React/Redux/Assignemnt/petshop-dapp/contracts/PetShop.sol",
  "compiler": {
    "name": "solc",
    "version": "0.6.2+commit.bacdbe57.Emscripten.clang"
  },
  "schemaVersion": "3.3.2",
  "updatedAt": "2021-04-11T14:44:15.213Z",
  "networkType": "ethereum",
  "devdoc": {
    "methods": {
      "approve(address,uint256)": {
        "details": "See {IERC721-approve}."
      },
      "balanceOf(address)": {
        "details": "See {IERC721-balanceOf}."
      },
      "baseURI()": {
        "details": "Returns the base URI set via {_setBaseURI}. This will be automatically added as a prefix in {tokenURI} to each token's URI, or to the token ID if no specific URI is set for that token ID."
      },
      "getApproved(uint256)": {
        "details": "See {IERC721-getApproved}."
      },
      "isApprovedForAll(address,address)": {
        "details": "See {IERC721-isApprovedForAll}."
      },
      "name()": {
        "details": "See {IERC721Metadata-name}."
      },
      "ownerOf(uint256)": {
        "details": "See {IERC721-ownerOf}."
      },
      "safeTransferFrom(address,address,uint256)": {
        "details": "See {IERC721-safeTransferFrom}."
      },
      "safeTransferFrom(address,address,uint256,bytes)": {
        "details": "See {IERC721-safeTransferFrom}."
      },
      "setApprovalForAll(address,bool)": {
        "details": "See {IERC721-setApprovalForAll}."
      },
      "supportsInterface(bytes4)": {
        "details": "See {IERC165-supportsInterface}.     * Time complexity O(1), guaranteed to always use less than 30 000 gas."
      },
      "symbol()": {
        "details": "See {IERC721Metadata-symbol}."
      },
      "tokenByIndex(uint256)": {
        "details": "See {IERC721Enumerable-tokenByIndex}."
      },
      "tokenOfOwnerByIndex(address,uint256)": {
        "details": "See {IERC721Enumerable-tokenOfOwnerByIndex}."
      },
      "tokenURI(uint256)": {
        "details": "See {IERC721Metadata-tokenURI}."
      },
      "totalSupply()": {
        "details": "See {IERC721Enumerable-totalSupply}."
      },
      "transferFrom(address,address,uint256)": {
        "details": "See {IERC721-transferFrom}."
      }
    }
  },
  "userdoc": {
    "methods": {}
  }
}